{
  "_format": "hh-sol-artifact-1",
  "contractName": "TodoWeb3",
  "sourceName": "contracts/TodoWeb3.sol",
  "abi": [
    {
      "anonymous": false,
      "inputs": [
        {
          "indexed": false,
          "internalType": "uint256",
          "name": "id",
          "type": "uint256"
        },
        {
          "indexed": false,
          "internalType": "bool",
          "name": "completed",
          "type": "bool"
        }
      ],
      "name": "TaskCompleted",
      "type": "event"
    },
    {
      "anonymous": false,
      "inputs": [
        {
          "indexed": false,
          "internalType": "uint256",
          "name": "id",
          "type": "uint256"
        },
        {
          "indexed": false,
          "internalType": "string",
          "name": "content",
          "type": "string"
        },
        {
          "indexed": false,
          "internalType": "bool",
          "name": "completed",
          "type": "bool"
        }
      ],
      "name": "TaskCreated",
      "type": "event"
    },
    {
      "inputs": [],
      "name": "clearCompletedTasks",
      "outputs": [],
      "stateMutability": "nonpayable",
      "type": "function"
    },
    {
      "inputs": [
        {
          "internalType": "string",
          "name": "_content",
          "type": "string"
        }
      ],
      "name": "createTask",
      "outputs": [],
      "stateMutability": "nonpayable",
      "type": "function"
    },
    {
      "inputs": [],
      "name": "taskCount",
      "outputs": [
        {
          "internalType": "uint256",
          "name": "",
          "type": "uint256"
        }
      ],
      "stateMutability": "view",
      "type": "function"
    },
    {
      "inputs": [
        {
          "internalType": "uint256",
          "name": "",
          "type": "uint256"
        }
      ],
      "name": "tasks",
      "outputs": [
        {
          "internalType": "uint256",
          "name": "id",
          "type": "uint256"
        },
        {
          "internalType": "string",
          "name": "content",
          "type": "string"
        },
        {
          "internalType": "bool",
          "name": "completed",
          "type": "bool"
        }
      ],
      "stateMutability": "view",
      "type": "function"
    },
    {
      "inputs": [
        {
          "internalType": "uint256",
          "name": "_id",
          "type": "uint256"
        }
      ],
      "name": "toggleCompleted",
      "outputs": [],
      "stateMutability": "nonpayable",
      "type": "function"
    }
  ],
  "bytecode": "0x60806040526000805534801561001457600080fd5b50610939806100246000396000f3fe608060405234801561001057600080fd5b50600436106100575760003560e01c8063111002aa1461005c578063273438f714610078578063455f5024146100825780638d9776721461009e578063b6cb58a5146100d0575b600080fd5b61007660048036038101906100719190610620565b6100ee565b005b6100806101c4565b005b61009c6004803603810190610097919061069f565b61026d565b005b6100b860048036038101906100b3919061069f565b61031e565b6040516100c79392919061077e565b60405180910390f35b6100d86103dd565b6040516100e591906107bc565b60405180910390f35b60008081548092919061010090610806565b91905055506040518060600160405280600054815260200182815260200160001515815250600160008054815260200190815260200160002060008201518160000155602082015181600101908051906020019061015f9291906103e3565b5060408201518160020160006101000a81548160ff0219169083151502179055509050507f05d0fb833127fc08168556d0e7ca9554fc3f6bc843b3b7d2bf1c35aea6bab6606000548260006040516101b99392919061077e565b60405180910390a150565b6000600190505b600054811161026a576001600082815260200190815260200160002060020160009054906101000a900460ff161561025757600160008281526020019081526020016000206000808201600090556001820160006102299190610469565b6002820160006101000a81549060ff021916905550506000808154809291906102519061084f565b91905055505b808061026290610806565b9150506101cb565b50565b6001600082815260200190815260200160002060020160009054906101000a900460ff16156001600083815260200190815260200160002060020160006101000a81548160ff0219169083151502179055507fe21fa966ca5cd02748c0752352d18c48165e61cb55b4c29cccf924b5a95fcff1816001600084815260200190815260200160002060020160009054906101000a900460ff16604051610313929190610879565b60405180910390a150565b6001602052806000526040600020600091509050806000015490806001018054610347906108d1565b80601f0160208091040260200160405190810160405280929190818152602001828054610373906108d1565b80156103c05780601f10610395576101008083540402835291602001916103c0565b820191906000526020600020905b8154815290600101906020018083116103a357829003601f168201915b5050505050908060020160009054906101000a900460ff16905083565b60005481565b8280546103ef906108d1565b90600052602060002090601f0160209004810192826104115760008555610458565b82601f1061042a57805160ff1916838001178555610458565b82800160010185558215610458579182015b8281111561045757825182559160200191906001019061043c565b5b50905061046591906104a9565b5090565b508054610475906108d1565b6000825580601f1061048757506104a6565b601f0160209004906000526020600020908101906104a591906104a9565b5b50565b5b808211156104c25760008160009055506001016104aa565b5090565b6000604051905090565b600080fd5b600080fd5b600080fd5b600080fd5b6000601f19601f8301169050919050565b7f4e487b7100000000000000000000000000000000000000000000000000000000600052604160045260246000fd5b61052d826104e4565b810181811067ffffffffffffffff8211171561054c5761054b6104f5565b5b80604052505050565b600061055f6104c6565b905061056b8282610524565b919050565b600067ffffffffffffffff82111561058b5761058a6104f5565b5b610594826104e4565b9050602081019050919050565b82818337600083830152505050565b60006105c36105be84610570565b610555565b9050828152602081018484840111156105df576105de6104df565b5b6105ea8482856105a1565b509392505050565b600082601f830112610607576106066104da565b5b81356106178482602086016105b0565b91505092915050565b600060208284031215610636576106356104d0565b5b600082013567ffffffffffffffff811115610654576106536104d5565b5b610660848285016105f2565b91505092915050565b6000819050919050565b61067c81610669565b811461068757600080fd5b50565b60008135905061069981610673565b92915050565b6000602082840312156106b5576106b46104d0565b5b60006106c38482850161068a565b91505092915050565b6106d581610669565b82525050565b600081519050919050565b600082825260208201905092915050565b60005b838110156107155780820151818401526020810190506106fa565b83811115610724576000848401525b50505050565b6000610735826106db565b61073f81856106e6565b935061074f8185602086016106f7565b610758816104e4565b840191505092915050565b60008115159050919050565b61077881610763565b82525050565b600060608201905061079360008301866106cc565b81810360208301526107a5818561072a565b90506107b4604083018461076f565b949350505050565b60006020820190506107d160008301846106cc565b92915050565b7f4e487b7100000000000000000000000000000000000000000000000000000000600052601160045260246000fd5b600061081182610669565b91507fffffffffffffffffffffffffffffffffffffffffffffffffffffffffffffffff821415610844576108436107d7565b5b600182019050919050565b600061085a82610669565b9150600082141561086e5761086d6107d7565b5b600182039050919050565b600060408201905061088e60008301856106cc565b61089b602083018461076f565b9392505050565b7f4e487b7100000000000000000000000000000000000000000000000000000000600052602260045260246000fd5b600060028204905060018216806108e957607f821691505b602082108114156108fd576108fc6108a2565b5b5091905056fea2646970667358221220db74031884c54c0af92a8b90690184d69cc8a0aed7ad95919032bab59813ecc264736f6c63430008090033",
  "linkReferences": {},
  "deployedLinkReferences": {}
}